{
  "_format": "hh-sol-artifact-1",
  "contractName": "GmonadWall",
  "sourceName": "contracts/GmonadWall.sol",
  "abi": [
    {
      "inputs": [],
      "stateMutability": "nonpayable",
      "type": "constructor"
    },
    {
      "inputs": [
        {
          "internalType": "address",
          "name": "owner",
          "type": "address"
        }
      ],
      "name": "OwnableInvalidOwner",
      "type": "error"
    },
    {
      "inputs": [
        {
          "internalType": "address",
          "name": "account",
          "type": "address"
        }
      ],
      "name": "OwnableUnauthorizedAccount",
      "type": "error"
    },
    {
      "anonymous": false,
      "inputs": [
        {
          "indexed": true,
          "internalType": "uint256",
          "name": "id",
          "type": "uint256"
        },
        {
          "indexed": false,
          "internalType": "bool",
          "name": "hidden",
          "type": "bool"
        }
      ],
      "name": "MessageHidden",
      "type": "event"
    },
    {
      "anonymous": false,
      "inputs": [
        {
          "indexed": true,
          "internalType": "uint256",
          "name": "id",
          "type": "uint256"
        },
        {
          "indexed": true,
          "internalType": "address",
          "name": "author",
          "type": "address"
        },
        {
          "indexed": false,
          "internalType": "uint256",
          "name": "timestamp",
          "type": "uint256"
        }
      ],
      "name": "MessagePosted",
      "type": "event"
    },
    {
      "anonymous": false,
      "inputs": [
        {
          "indexed": true,
          "internalType": "address",
          "name": "previousOwner",
          "type": "address"
        },
        {
          "indexed": true,
          "internalType": "address",
          "name": "newOwner",
          "type": "address"
        }
      ],
      "name": "OwnershipTransferred",
      "type": "event"
    },
    {
      "inputs": [],
      "name": "COOLDOWN",
      "outputs": [
        {
          "internalType": "uint256",
          "name": "",
          "type": "uint256"
        }
      ],
      "stateMutability": "view",
      "type": "function"
    },
    {
      "inputs": [],
      "name": "MAX_LENGTH",
      "outputs": [
        {
          "internalType": "uint256",
          "name": "",
          "type": "uint256"
        }
      ],
      "stateMutability": "view",
      "type": "function"
    },
    {
      "inputs": [],
      "name": "MAX_READ",
      "outputs": [
        {
          "internalType": "uint256",
          "name": "",
          "type": "uint256"
        }
      ],
      "stateMutability": "view",
      "type": "function"
    },
    {
      "inputs": [
        {
          "internalType": "address",
          "name": "user",
          "type": "address"
        }
      ],
      "name": "getCooldownRemaining",
      "outputs": [
        {
          "internalType": "uint256",
          "name": "",
          "type": "uint256"
        }
      ],
      "stateMutability": "view",
      "type": "function"
    },
    {
      "inputs": [
        {
          "internalType": "uint256",
          "name": "limit",
          "type": "uint256"
        }
      ],
      "name": "getLatestMessages",
      "outputs": [
        {
          "internalType": "uint256[]",
          "name": "ids",
          "type": "uint256[]"
        },
        {
          "internalType": "string[]",
          "name": "texts",
          "type": "string[]"
        },
        {
          "internalType": "uint256[]",
          "name": "timestamps",
          "type": "uint256[]"
        },
        {
          "internalType": "bool[]",
          "name": "hiddenFlags",
          "type": "bool[]"
        }
      ],
      "stateMutability": "view",
      "type": "function"
    },
    {
      "inputs": [],
      "name": "getMessageCount",
      "outputs": [
        {
          "internalType": "uint256",
          "name": "",
          "type": "uint256"
        }
      ],
      "stateMutability": "view",
      "type": "function"
    },
    {
      "inputs": [
        {
          "internalType": "uint256",
          "name": "id",
          "type": "uint256"
        },
        {
          "internalType": "bool",
          "name": "hidden",
          "type": "bool"
        }
      ],
      "name": "hideMessage",
      "outputs": [],
      "stateMutability": "nonpayable",
      "type": "function"
    },
    {
      "inputs": [],
      "name": "owner",
      "outputs": [
        {
          "internalType": "address",
          "name": "",
          "type": "address"
        }
      ],
      "stateMutability": "view",
      "type": "function"
    },
    {
      "inputs": [
        {
          "internalType": "string",
          "name": "text",
          "type": "string"
        }
      ],
      "name": "postMessage",
      "outputs": [],
      "stateMutability": "nonpayable",
      "type": "function"
    },
    {
      "inputs": [],
      "name": "renounceOwnership",
      "outputs": [],
      "stateMutability": "nonpayable",
      "type": "function"
    },
    {
      "inputs": [
        {
          "internalType": "address",
          "name": "newOwner",
          "type": "address"
        }
      ],
      "name": "transferOwnership",
      "outputs": [],
      "stateMutability": "nonpayable",
      "type": "function"
    }
  ],
  "bytecode": "0x60806040523480156200001157600080fd5b5033600073ffffffffffffffffffffffffffffffffffffffff168173ffffffffffffffffffffffffffffffffffffffff1603620000885760006040517f1e4fbdf70000000000000000000000000000000000000000000000000000000081526004016200007f9190620001a9565b60405180910390fd5b6200009981620000a060201b60201c565b50620001c6565b60008060009054906101000a900473ffffffffffffffffffffffffffffffffffffffff169050816000806101000a81548173ffffffffffffffffffffffffffffffffffffffff021916908373ffffffffffffffffffffffffffffffffffffffff1602179055508173ffffffffffffffffffffffffffffffffffffffff168173ffffffffffffffffffffffffffffffffffffffff167f8be0079c531659141344cd1fd0a4f28419497f9722a3daafe3b4186f6b6457e060405160405180910390a35050565b600073ffffffffffffffffffffffffffffffffffffffff82169050919050565b6000620001918262000164565b9050919050565b620001a38162000184565b82525050565b6000602082019050620001c0600083018462000198565b92915050565b61178580620001d66000396000f3fe608060405234801561001057600080fd5b50600436106100a95760003560e01c80638da5cb5b116100715780638da5cb5b146101405780639e19a1ca1461015e578063a2724a4d14610191578063a6f9885c146101af578063f2fde38b146101cd578063f47762a5146101e9576100a9565b806331933916146100ae5780635b46900c146100cc5780636630f88f146100fc578063715018a61461011857806375eee38c14610122575b600080fd5b6100b6610205565b6040516100c39190610bbd565b60405180910390f35b6100e660048036038101906100e19190610c40565b610212565b6040516100f39190610bbd565b60405180910390f35b61011660048036038101906101119190610cd2565b61028a565b005b61012061057f565b005b61012a610593565b6040516101379190610bbd565b60405180910390f35b610148610598565b6040516101559190610d2e565b60405180910390f35b61017860048036038101906101739190610d75565b6105c1565b604051610188949392919061107c565b60405180910390f35b6101996108f8565b6040516101a69190610bbd565b60405180910390f35b6101b76108fe565b6040516101c49190610bbd565b60405180910390f35b6101e760048036038101906101e29190610c40565b610903565b005b61020360048036038101906101fe9190611109565b610989565b005b6000600180549050905090565b60008061012c600260008573ffffffffffffffffffffffffffffffffffffffff1673ffffffffffffffffffffffffffffffffffffffff168152602001908152602001600020546102629190611178565b9050804210610275576000915050610285565b428161028191906111ac565b9150505b919050565b600082829050116102d0576040517f08c379a00000000000000000000000000000000000000000000000000000000081526004016102c79061123d565b60405180910390fd5b6078828290501115610317576040517f08c379a000000000000000000000000000000000000000000000000000000000815260040161030e906112a9565b60405180910390fd5b61012c600260003373ffffffffffffffffffffffffffffffffffffffff1673ffffffffffffffffffffffffffffffffffffffff168152602001908152602001600020546103649190611178565b4210156103a6576040517f08c379a000000000000000000000000000000000000000000000000000000000815260040161039d90611315565b60405180910390fd5b600160405180608001604052803373ffffffffffffffffffffffffffffffffffffffff16815260200184848080601f016020809104026020016040519081016040528093929190818152602001838380828437600081840152601f19601f82011690508083019250505050505050815260200142815260200160001515815250908060018154018082558091505060019003906000526020600020906004020160009091909190915060008201518160000160006101000a81548173ffffffffffffffffffffffffffffffffffffffff021916908373ffffffffffffffffffffffffffffffffffffffff16021790555060208201518160010190816104ab9190611570565b506040820151816002015560608201518160030160006101000a81548160ff021916908315150217905550505042600260003373ffffffffffffffffffffffffffffffffffffffff1673ffffffffffffffffffffffffffffffffffffffff168152602001908152602001600020819055503373ffffffffffffffffffffffffffffffffffffffff166001808054905061054491906111ac565b7f8f4643dff3d848cd7892ee87d979d336272567383be5bd75a6ed122d518e3ff0426040516105739190610bbd565b60405180910390a35050565b610587610a51565b6105916000610ad8565b565b603281565b60008060009054906101000a900473ffffffffffffffffffffffffffffffffffffffff16905090565b6060806060806000603286116105d757856105da565b60325b90506000600180549050905060008183106105f557816105f7565b825b90508067ffffffffffffffff81111561061357610612611335565b5b6040519080825280602002602001820160405280156106415781602001602082028036833780820191505090505b5096508067ffffffffffffffff81111561065e5761065d611335565b5b60405190808252806020026020018201604052801561069157816020015b606081526020019060019003908161067c5790505b5095508067ffffffffffffffff8111156106ae576106ad611335565b5b6040519080825280602002602001820160405280156106dc5781602001602082028036833780820191505090505b5094508067ffffffffffffffff8111156106f9576106f8611335565b5b6040519080825280602002602001820160405280156107275781602001602082028036833780820191505090505b50935060005b818110156108ed57600081838561074491906111ac565b61074e9190611178565b90508089838151811061076457610763611642565b5b6020026020010181815250506001818154811061078457610783611642565b5b906000526020600020906004020160010180546107a090611393565b80601f01602080910402602001604051908101604052809291908181526020018280546107cc90611393565b80156108195780601f106107ee57610100808354040283529160200191610819565b820191906000526020600020905b8154815290600101906020018083116107fc57829003601f168201915b505050505088838151811061083157610830611642565b5b6020026020010181905250600181815481106108505761084f611642565b5b90600052602060002090600402016002015487838151811061087557610874611642565b5b6020026020010181815250506001818154811061089557610894611642565b5b906000526020600020906004020160030160009054906101000a900460ff168683815181106108c7576108c6611642565b5b6020026020010190151590811515815250505080806108e590611671565b91505061072d565b505050509193509193565b61012c81565b607881565b61090b610a51565b600073ffffffffffffffffffffffffffffffffffffffff168173ffffffffffffffffffffffffffffffffffffffff160361097d5760006040517f1e4fbdf70000000000000000000000000000000000000000000000000000000081526004016109749190610d2e565b60405180910390fd5b61098681610ad8565b50565b610991610a51565b60018054905082106109d8576040517f08c379a00000000000000000000000000000000000000000000000000000000081526004016109cf90611705565b60405180910390fd5b80600183815481106109ed576109ec611642565b5b906000526020600020906004020160030160006101000a81548160ff021916908315150217905550817f1e681831159c646e4223e6a80b8bf19d1d0d478f586a119d3b764e9487e8886782604051610a459190611734565b60405180910390a25050565b610a59610b9c565b73ffffffffffffffffffffffffffffffffffffffff16610a77610598565b73ffffffffffffffffffffffffffffffffffffffff1614610ad657610a9a610b9c565b6040517f118cdaa7000000000000000000000000000000000000000000000000000000008152600401610acd9190610d2e565b60405180910390fd5b565b60008060009054906101000a900473ffffffffffffffffffffffffffffffffffffffff169050816000806101000a81548173ffffffffffffffffffffffffffffffffffffffff021916908373ffffffffffffffffffffffffffffffffffffffff1602179055508173ffffffffffffffffffffffffffffffffffffffff168173ffffffffffffffffffffffffffffffffffffffff167f8be0079c531659141344cd1fd0a4f28419497f9722a3daafe3b4186f6b6457e060405160405180910390a35050565b600033905090565b6000819050919050565b610bb781610ba4565b82525050565b6000602082019050610bd26000830184610bae565b92915050565b600080fd5b600080fd5b600073ffffffffffffffffffffffffffffffffffffffff82169050919050565b6000610c0d82610be2565b9050919050565b610c1d81610c02565b8114610c2857600080fd5b50565b600081359050610c3a81610c14565b92915050565b600060208284031215610c5657610c55610bd8565b5b6000610c6484828501610c2b565b91505092915050565b600080fd5b600080fd5b600080fd5b60008083601f840112610c9257610c91610c6d565b5b8235905067ffffffffffffffff811115610caf57610cae610c72565b5b602083019150836001820283011115610ccb57610cca610c77565b5b9250929050565b60008060208385031215610ce957610ce8610bd8565b5b600083013567ffffffffffffffff811115610d0757610d06610bdd565b5b610d1385828601610c7c565b92509250509250929050565b610d2881610c02565b82525050565b6000602082019050610d436000830184610d1f565b92915050565b610d5281610ba4565b8114610d5d57600080fd5b50565b600081359050610d6f81610d49565b92915050565b600060208284031215610d8b57610d8a610bd8565b5b6000610d9984828501610d60565b91505092915050565b600081519050919050565b600082825260208201905092915050565b6000819050602082019050919050565b610dd781610ba4565b82525050565b6000610de98383610dce565b60208301905092915050565b6000602082019050919050565b6000610e0d82610da2565b610e178185610dad565b9350610e2283610dbe565b8060005b83811015610e53578151610e3a8882610ddd565b9750610e4583610df5565b925050600181019050610e26565b5085935050505092915050565b600081519050919050565b600082825260208201905092915050565b6000819050602082019050919050565b600081519050919050565b600082825260208201905092915050565b60005b83811015610ec6578082015181840152602081019050610eab565b60008484015250505050565b6000601f19601f8301169050919050565b6000610eee82610e8c565b610ef88185610e97565b9350610f08818560208601610ea8565b610f1181610ed2565b840191505092915050565b6000610f288383610ee3565b905092915050565b6000602082019050919050565b6000610f4882610e60565b610f528185610e6b565b935083602082028501610f6485610e7c565b8060005b85811015610fa05784840389528151610f818582610f1c565b9450610f8c83610f30565b925060208a01995050600181019050610f68565b50829750879550505050505092915050565b600081519050919050565b600082825260208201905092915050565b6000819050602082019050919050565b60008115159050919050565b610ff381610fde565b82525050565b60006110058383610fea565b60208301905092915050565b6000602082019050919050565b600061102982610fb2565b6110338185610fbd565b935061103e83610fce565b8060005b8381101561106f5781516110568882610ff9565b975061106183611011565b925050600181019050611042565b5085935050505092915050565b600060808201905081810360008301526110968187610e02565b905081810360208301526110aa8186610f3d565b905081810360408301526110be8185610e02565b905081810360608301526110d2818461101e565b905095945050505050565b6110e681610fde565b81146110f157600080fd5b50565b600081359050611103816110dd565b92915050565b600080604083850312156111205761111f610bd8565b5b600061112e85828601610d60565b925050602061113f858286016110f4565b9150509250929050565b7f4e487b7100000000000000000000000000000000000000000000000000000000600052601160045260246000fd5b600061118382610ba4565b915061118e83610ba4565b92508282019050808211156111a6576111a5611149565b5b92915050565b60006111b782610ba4565b91506111c283610ba4565b92508282039050818111156111da576111d9611149565b5b92915050565b600082825260208201905092915050565b7f456d707479206d65737361676500000000000000000000000000000000000000600082015250565b6000611227600d836111e0565b9150611232826111f1565b602082019050919050565b600060208201905081810360008301526112568161121a565b9050919050565b7f4d65737361676520746f6f206c6f6e6700000000000000000000000000000000600082015250565b60006112936010836111e0565b915061129e8261125d565b602082019050919050565b600060208201905081810360008301526112c281611286565b9050919050565b7f436f6f6c646f776e206163746976650000000000000000000000000000000000600082015250565b60006112ff600f836111e0565b915061130a826112c9565b602082019050919050565b6000602082019050818103600083015261132e816112f2565b9050919050565b7f4e487b7100000000000000000000000000000000000000000000000000000000600052604160045260246000fd5b7f4e487b7100000000000000000000000000000000000000000000000000000000600052602260045260246000fd5b600060028204905060018216806113ab57607f821691505b6020821081036113be576113bd611364565b5b50919050565b60008190508160005260206000209050919050565b60006020601f8301049050919050565b600082821b905092915050565b6000600883026114267fffffffffffffffffffffffffffffffffffffffffffffffffffffffffffffffff826113e9565b61143086836113e9565b95508019841693508086168417925050509392505050565b6000819050919050565b600061146d61146861146384610ba4565b611448565b610ba4565b9050919050565b6000819050919050565b61148783611452565b61149b61149382611474565b8484546113f6565b825550505050565b600090565b6114b06114a3565b6114bb81848461147e565b505050565b5b818110156114df576114d46000826114a8565b6001810190506114c1565b5050565b601f821115611524576114f5816113c4565b6114fe846113d9565b8101602085101561150d578190505b611521611519856113d9565b8301826114c0565b50505b505050565b600082821c905092915050565b600061154760001984600802611529565b1980831691505092915050565b60006115608383611536565b9150826002028217905092915050565b61157982610e8c565b67ffffffffffffffff81111561159257611591611335565b5b61159c8254611393565b6115a78282856114e3565b600060209050601f8311600181146115da57600084156115c8578287015190505b6115d28582611554565b86555061163a565b601f1984166115e8866113c4565b60005b82811015611610578489015182556001820191506020850194506020810190506115eb565b8683101561162d5784890151611629601f891682611536565b8355505b6001600288020188555050505b505050505050565b7f4e487b7100000000000000000000000000000000000000000000000000000000600052603260045260246000fd5b600061167c82610ba4565b91507fffffffffffffffffffffffffffffffffffffffffffffffffffffffffffffffff82036116ae576116ad611149565b5b600182019050919050565b7f496e76616c696420696400000000000000000000000000000000000000000000600082015250565b60006116ef600a836111e0565b91506116fa826116b9565b602082019050919050565b6000602082019050818103600083015261171e816116e2565b9050919050565b61172e81610fde565b82525050565b60006020820190506117496000830184611725565b9291505056fea2646970667358221220a24881a005b863d95e9321687ed3db51e053d41b55728c97445859421c15056664736f6c63430008140033",
  "linkReferences": {},
  "deployedLinkReferences": {}
}